:0C0000000C947C000C9400000C94000098
:10000C000C9400000C9400000C9400000C94000064
:10001C000C9400000C9400000C9400000C94000054
:10002C000C9400000C9400000C9400000C94000044
:10003C000C9400000C9400000C9400000C94000034
:10004C000C9400000C9400000C9400000C94000024
:10005C000C9400000C9400000C94000003030302A9
:10006C00020C0008000100064A616D657320426FA6
:10007C006E64202020202020004130313233343572
:10008C003637202020202020200050574D202020C3
:10009C00202020202020202020004475747920432B
:1000AC0079636C653D25332E3066252500566F6CC3
:1000BC0074616A6520313D252E3166202020005662
:1000CC006F6C74616A6520323D252E3166202020CC
:1000DC0000002D4E414E000001002D4E414E0049B6
:1000EC004E46000001001E03E4000000F894EE27C9
:1000FC00EFBBF1E0F5BFE5BFF8E1A895A4B7A77F8A
:10010C00A4BFF0936000E09360008DE0A2E0BB27F9
:10011C00ED938A95E9F780E098E0A0E0B1E0ED93EB
:10012C000197E9F7E0EFF0E085919591009761F088
:10013C00A591B59105901590BF01F00105900D9218
:10014C000197E1F7FB01F0CFE0E0EEBBEFEFEDBF85
:10015C00E8E0EEBFC0E0D3E00C9481012C978CE07A
:10016C00A0E0B0E0E8E6F0E00E94770A0A93E7B17D
:10017C00EF60E7B9E4B1E760E4B9E2E3F0E00E94D4
:10018C00C50600E00C3070F40E94C9060E94CC0633
:10019C00DE011196AE0FBF1FEC91EA930E94CF06C1
:1001AC000F5FF0CFECE0E0930003EA931FD00881DF
:1001BC002D9608952A9A2A980895E881E87011F0EE
:1001CC00439A01C04398E881E47011F0429A01C04F
:1001DC004298E881E27011F0419A01C04198E8819F
:1001EC00E17011F0409A01C0409883C00A9328989E
:1001FC000E94C906E981E07F0E2F0E94CC060E9466
:10020C00D3060E94D806D6DF088158C00A93289AD4
:10021C000E94C906E981E07F0E2F0E94CC060E9445
:10022C00D3060E94D806C6DF088148C00A9300E0B6
:10023C000E94DF06EA0FFB1FE491EA93E7DFE02F51
:10024C00A981BA81F0E0EA0FFB1FE491E03081F75D
:10025C0011C00A9300E00E94DF06AE0FBF1FEC91A5
:10026C00EA93D4DFA981BA81EE27A00FBE1FEC91CF
:10027C00E03089F7088123960895E1E0EA93B6DF30
:10028C000895E881F0E0309719F4E981E05814C042
:10029C00E130A0E0FA0719F4E981E0540DC0E23036
:1002AC00A0E0FA0719F4E981EC5606C0E330A0E0AF
:1002BC00FA0721F4E981EC52EA9398DF229608952B
:1002CC00E881E064E0937C0083E48A95F1F7E091A7
:1002DC007A00E064E0937A00E0917A00E071E1F357
:1002EC00E0917A00E061E0937A00E0917800F0917F
:1002FC00790021960895E0E3E0937E00E0E4E0933A
:10030C007C00E7E8E0937A00219A239A27DFE9B191
:10031C00F0E0F595E795E370E0930103F0E030979A
:10032C00D9F40E94E5060E94E906E4E7F0E00E9499
:10033C00EE060E94F206E5E8F0E00E94EE06E8E028
:10034C00E0938900EDE8E0938800E0E4E09380001E
:10035C00E9E0E093810094C0E130A0E0FA07E1F518
:10036C00E0E0E0938100E3E8E093B000E1E0E093AB
:10037C00B1000E94F8060E94DB09E093B3000E94D2
:10038C00F8060E94FC06A0E0B0E088EC92E40E9423
:10039C000107E0930A03F0930B0360930C03709333
:1003AC000D03E0E00E94E906E6E9F0E00E94EE06AB
:1003BC000E94F2060E940C07E6EAF0E0FA93EA9338
:1003CC00E0910A03F0910B0360910C0370910D0303
:1003DC000E9411073EDF54C0E230A0E0FA0711F092
:1003EC000C943D020E94E506E09381000E94F80601
:1003FC000E941807E0930203F09303036093040335
:10040C0070930503E5E0EA935BDF0E941807E09325
:10041C000603F09307036093080370930903E0E06D
:10042C000E94E9060E940C07E9EBF0E0FA93EA93CC
:10043C00E0910203F09103036091040370910503B2
:10044C000E94110706DF0E94F2060E940C07EBECDB
:10045C00F0E0FA93EA93E0910603F09107036091C0
:10046C000803709109030E941107F3DE09C0E33001
:10047C00A0E0FA0729F40E94E506E0938100FDDE76
:10048C0046CFFFCF1A930A93AA81BB8112960E9482
:10049C003F0A309729F1AA81BB8114960E943F0A2A
:1004AC008F01309761F00230E0E01E07C0F0F801D8
:1004BC0031978F01AA81BB811496ED93FC93AA818D
:1004CC00BB8112960E941E073197AC81A083AA8132
:1004DC00BB810E943F0AFF2312F00E941E0706C038
:1004EC00AA81BB81EFEFFFEFED93FC93198108819B
:1004FC00259608952497E0E0E883E983E0E8EA8311
:10050C00EFE3EB830E946C0AED85FE85EF3FAFEFC6
:10051C00FA0739F40E942407EEEDF0E00E94290757
:10052C00B6C0EF3FAFE7FA0739F40E942407EFEDAE
:10053C00F0E00E942907ABC0AA85A73010F0E6E0D6
:10054C00EA870A85E02F0150E03019F00E942D0750
:10055C00F9CFEB85FC856D857E850E94650A21F4BB
:10056C0020E00E942D072EC02A850E943C0709F02E
:10057C0010F40C94CC020E942D070E943C0728F02A
:10058C000E9447070E944C07F8CF0DC00E943C0701
:10059C0040F40E9447070E9458070E945F072150B1
:1005AC00F5CF0E942D07EB85FC856D857E850E941D
:1005BC0064070E945F070E943C0720F00E944707D7
:1005CC000E944C0700E0EA85E017A8F1AB81BC81E2
:1005DC008D819E810E946B070E9464070E94530AC2
:1005EC000E940E06EB83FC836D837E830E9447077B
:1005FC000E9461090E9450081E2F0E9472070E94DF
:10060C007907FF27662777270E948908AB81BC8171
:10061C008D819E810E9413090E9447070E947E07CC
:10062C000E945F07E02F0F5FE03069F60E947207AF
:10063C00EEE2EC93C8CF0E9483073197A985A08383
:10064C0020302CF42195AF81B885EDE203C0AF8149
:10065C00B885EBE2EC930E9483070E9483073197E5
:10066C00BF01A22FEAE00E94F909E05DDB01EC93E7
:10067C000E9483073197BF01A22FEAE00E94230A50
:10068C00E05DDB01EC93AF81B885E0E0EC930E9478
:10069C00730A2F960895EF9761970E94690A00E0FC
:1006AC00FE01E85AFF4F0190F081E02DE887F987B1
:1006BC00FE01EA5AFF4F0190F081E02DEE83FF839B
:1006CC00AE81BF81E0E0F0E0ED93FC93DE01A45A33
:1006DC00BF4F0E941E073197E4913E2FE03011F47A
:1006EC000C948005E02FE03059F4353211F401E020
:1006FC0006C03A930E942407EB85FC850995F9C145
:10070C00E130E1F4353239F43A930E942407EB8559
:10071C00FC850995EDC102E0E0E0ED8B10E03D3287
:10072C0011F411E0E6C13B3219F4EBE2ED8BE1C1BF
:10073C00303219F4E0E2ED8BDCC102C0E23039F466
:10074C0040E003E0303311F41068D3C102C0E33051
:10075C0091F4303310F03A3308F007C0AAE04A9F06
:10076C00402DE32FE0534E0FC4C150E03E3211F444
:10077C0004E0BFC10FC0E43099F4303310F03A33C9
:10078C0008F008C01062AAE05A9F502DE32FE053E6
:10079C005E0FAFC13C3619F4126005E0AAC104C06B
:1007AC00E53011F00C947F05E32FE33671F40E94D1
:1007BC0089070E9490070E948907A481AA930E942E
:1007CC002407EB85FC85099593C1E53411F0E536DA
:1007DC0009F404C0E63611F00C944104FE0176963F
:1007EC00EE87FF870E9497070E94430A0E949E078C
:1007FC000E94A307AD85AA2322F0AD89AB3249F044
:10080C001AC00E94A5070E941D080E949E07EDE2D7
:10081C00ED8B17FF08C0ED89EA930E942407EB8546
:10082C00FC85099508C0EE85FF853196EE87FF871C
:10083C003197AD89A08315FF56E0363661F40E94DE
:10084C00A5070E94530A5A93EB89FC89FA93EA9301
:10085C000E9425060BC00E94A5070E94530A5A93BA
:10086C003A93EC89FD89FA93EA9344DEFE0176967D
:10087C000E94AA071EC0E33739F40E94A3070E9406
:10088C00B2070E94AA070EC0E037C1F40E94A3076A
:10089C000E94B207EE87FF87FA93EA930E94D40571
:1008AC000E2F18601F77503011F0501708F001C050
:1008BC00052F50E0E0E0EC8B20E06EC0E43611F048
:1008CC00E93611F4146002C0E537A1F4EAE0EC8BD0
:1008DC0011FF08C0E0E0FAEC6AE97BE30E94B7077D
:1008EC000AE023C0E0E1F7E260E070E00E94B707A5
:1008FC0005E01BC0E83511F4186004C0E83711F0AE
:10090C000C947E05E0E1EC8B11FF08C0E0E0F0E018
:10091C0060E070E10E94B70708E007C0E0E0F0E19A
:10092C0060E070E00E94B70704E0503011F01F77D0
:10093C0001C051E011FF08C00E94A3070E94970755
:10094C0014960E94430A0FC012FF07C00E94A3070F
:10095C000E94B2070E94E60906C00E94A3070E94EB
:10096C00B20766277727EA87FB876C877D8712FF9C
:10097C0012C0AD85AA2342F40E94A5070E94CA09A1
:10098C000E949E07EDE2ED8BED89E03019F00F5FD0
:10099C005F5F01C01B7F252F10FD18C0041710F4DA
:1009AC00241708F013C017FF08C012FF04C01B7FE8
:1009BC003D89015001C030E301C030E23A930E94FE
:1009CC002407EB85FC8509954150E8CF051798F471
:1009DC00106112FF06C00E94BC0709F04150015083
:1009EC005150E0E3EA930E9424070E94D00709F0DB
:1009FC0041505150EBCF202FEC89E030C9F420301E
:100A0C00B1F013FF06C0EE85FF853591EE87FF87A9
:100A1C0005C0AE85BF853D91AE87BF873A930E94D6
:100A2C0024070E94D00709F041502150E8CF53C051
:100A3C000E94D5070E94FE093E2F3A3030F013FF7A
:100A4C0002C0395C01C0395A01C0305D14FD21C0AF
:100A5C00313360F4A889B9898A899B89A130E0E097
:100A6C00BE07E0E08E07E0E09E0709F40BC05217CA
:100A7C0040F4421710F010FF01C012C030E217FF13
:100A8C0008C030E3106112FF04C00E94BC0709F0DB
:100A9C0041503A930E9424070E94D00709F041501C
:100AAC0021500E94D5070E942F0A0E949E07EC89B4
:100ABC00A889B9898A899B89FF27662777270E948D
:100ACC00FE090E94B707E889F9896A897B890E9427
:100ADC00650A09F0ADCF10FF0BC0403049F0415012
:100AEC00E0E2EA930E942407EB85FC850995F5CF9B
:100AFC0000E0ECCDAE81BF810E943F0A0E94700ADB
:100B0C00EF966F960895FF92F82E26970E946B0A27
:100B1C000E94DE07309719F4EFEFFFEF25C0DE01DE
:100B2C0016960E94C6098D010E94DE07EE83FF8394
:100B3C00E0E0E887E987DE011A960E94C6090E9468
:100B4C003F0AFA93EA931A930A93E8E4F2E0FA93D1
:100B5C00EA93FE013A96FA93EA939DDD9F01AE81EA
:100B6C00BF81E0E0EC93F9010E94720A2A96FF9093
:100B7C000895E991F991A991B991CD0105900D9242
:100B8C000020E1F7FC010895A991B991EE27FF2708
:100B9C006D91662311F03196FBCF0895AA27BB27E0
:100BAC00E991F9910590002011F01196FBCFFD0110
:100BBC0008957B816A81F981E88177FB770F67FD66
:100BCC007160972F9E5781F078F0983190F4AA2796
:100BDC00BB27882708948795B795A7959A95D1F741
:100BEC00EA23FB23682305C0E8947727EE27FF2729
:100BFC0066276F77769508F4606877F9A991B991B3
:100C0C0089919991EA17FB076807790797FB089573
:100C1C000E94E5070E94530A0E94DF050E944E0ABB
:100C2C0019F40E94E50709C0E6F70E94E507A0E069
:100C3C00B0E080E89FE30E94BC08249608952497B6
:100C4C00E0E0E883E983EA83EFE3EB831A930A930A
:100C5C00EB85FC85EF3FAFEFFA0729F4B3D1E6EE55
:100C6C00F0E0F1D088C0EF3FAFE7FA0729F4AAD142
:100C7C00E7EEF0E0E8D07FC0AC85AA2352F4E9851A
:100C8C00FA856B857C850E941D08A1D1A5D1EDE26A
:100C9C00EC93A885A73010F0E6E0E8870885E02FF4
:100CAC000150E03021F09FD110D1A2D1F8CFA5D1C5
:100CBC000E94C3088CD100E0E0E0F0E060E87FE344
:100CCC0097D19BD10E94A60960F08DD1EBD090D129
:100CDC000F5F073228F076D1EBEEF0E0B4D04BC0CA
:100CEC00F0CF003021F478D1E0E3EC9320C0E02F7A
:100CFC000150E030E1F077D1E8D0E0D00E94530A07
:100D0C000E940E0675D179D10E9461090E9450088B
:100D1C001E2F62D1E8D0F0E066D10E94E6090E9455
:100D2C0089080E94130972D1E3D051D1E0CFE88534
:100D3C00E030E9F051D1EEE2EC93E885E150E88740
:100D4C00EF5FA9F063D1AED042D1E985FA856B850E
:100D5C007C850E9450081E2F3FD1C5D0F0E056D1A3
:100D6C000E94E6090E948908C3D031D1E6CFAE813A
:100D7C00BF81E0E0EC93198108812D960895FA93D8
:100D8C00EA930C941108E2E0F0E0F9CFE02FF0E0E8
:100D9C0008950E94E3000C94E0000E94D2090E2FEB
:100DAC000A93F7CFE981EF700E2F0A930E94E300AC
:100DBC00EACFE02F0F5FA981BA81F0E00895E0E05F
:100DCC00E093B1000895EA93E0E0EA930C944701B4
:100DDC00FA93EA930C941C01E0E0EA93E1E0EA93C5
:100DEC000C944701E4E0EA930C946601662777279C
:100DFC000E94890808950E941309DF01CB01E0E0ED
:100E0C00F0E060E874E40E9461090895EEE0F3E01C
:100E1C00FA93EA9308950E94530A84E00E9489058C
:100E2C002896F4CFE3DFA0E0B0E080EA90E4E3CFD3
:100E3C00ED91FD913196FE93EE930895EF81F88537
:100E4C00FA93EA930895FA93EA930C94BF05AB8155
:100E5C00BC818D819E81E0E0F0E060E271E40E9453
:100E6C001309EB83FC836D837E830895EB81FC81F6
:100E7C006D817E81AB85BC858D859E850E94A60982
:100E8C000895AB85BC858D859E850895EDECFCECB5
:100E9C006CEC7DE30E941309EB87FC876D877E87E2
:100EAC002F5F0895E0E0F0E060E271E40E94130926
:100EBC000895EB87FC876D877E870895A0E0B0E0EE
:100ECC0080E09FE30E94C3080895EDECFCEC6CEC11
:100EDC007DE30E9413090895AF81B8851196AF8305
:100EEC00B88711970895E12FE05DEC93E12F0895F9
:100EFC000E94580A0E94BC080895EF81F88531962B
:100F0C00EF83F8870895FE01E65AFF4F0190F081B8
:100F1C00E02D08953497DE01A65ABF4FED93FC9354
:100F2C000895DE01A65ABF4F0D90BC91A02D0895D7
:100F3C00EA87FB876C877D870895E5DFEBCFEA8531
:100F4C00FB856C857D850895EE87FF87FA93EA9380
:100F5C000E94CA050E2F0895E4DF14960E943F0AE2
:100F6C000895E88BF98B6A8B7B8B08951B7FED8939
:100F7C00EA93FE01E95AFF4F0190F081E02DFA93BC
:100F8C00EA93FE01E55AFF4F0190F081E02D09959F
:100F9C0040300895EB85FC85099540300895E8892B
:100FAC00F9896A897B89AA85BB858C859D8508957D
:100FBC00DE011C960E94C6090E943F0A08950E94F9
:100FCC00490A0895EE81FF81FA93EA930895E9871F
:100FDC00FA876B877C870895AE81BF811196AE83AB
:100FEC00BF8311970895AA81BB818C819D8108953F
:100FFC00EA83FB836C837D830895EA81FB816C819A
:10100C007D81A985BA858B859C850895A985BA852E
:10101C008B859C850895E991F991309639F088E893
:10102C0093E10197F1F7A8953197C9F70895309797
:10103C006040704009F070580895552342F45038C0
:10104C0011F4E0FF04C03196691F791F6BF050E872
:10105C00572711F45F93CFC05F3F31F0660F000C40
:10106C0057956795752F08955F9300200AF0CFC0B0
:10107C00C8C050E8192E1522880F991F9527550FB7
:10108C00879550E8072E0522660F771F7527550F99
:10109C0067950895689401C0E8945F93F2DF703807
:1010AC0018F07F3F08F4A7C056E1571BAAF45195DE
:1010BC0058300EF4593030F0EFEFFFEF6FEF7FE761
:1010CC0077F91AC077275523B9F0EE0FFF1F661F6B
:1010DC00771F5A95D1F710C07727583028F0EF2F8B
:1010EC00F62F672F5850F9CF552331F07695679529
:1010FC00F795E7955A95D1F700200AF445D15F9101
:10110C000895689401C0E894309760407040B1F045
:10111C00002426F0772312F4009436D1172E7EE1AA
:10112C00112032F07A95EE0FFF1F661F111CF9CFBC
:10113C00EF2FF62F612D5F938ADF5F9108954F9308
:10114C00AF01FD01DA01AB01BC01CA01402D012C3C
:10115C00142E4F910895EA0FFB1F681F0895E09518
:10116C00F0956095EF5FFF4F6F4F08955F9381DFB0
:10117C00903871F150E8152604C05F937ADF9038EF
:10118C0039F1703821F1572F591B2BF112F4D7DF9D
:10119C00FACF583118F0AA27BB278827583028F0E7
:1011AC00AB2FB82F88275850F9CF552329F08695A7
:1011BC00B795A7955A95D9F7502D512572F0CBDFDD
:1011CC0038F46795F795E795739513F420C0B7DF5E
:1011DC003EDF5F910895D8F7FBCFEA1BFB0B680B42
:1011EC0051F010F40094BBDF662392F3EE0FFF1F57
:1011FC00661F7A95CBF7EE27FF27662777275F9137
:10120C000895EFEFFFEF6FE77FEF5F910895EFEF3A
:10121C00FFEF6FE77FE75F9108955F932ADF7038E8
:10122C0051F3903841F301240894791F23F41CF3F3
:10123C0000203AF3ECCF0F921F932F933F934F93D1
:10124C00112722279927689FA0018F9F302D410DD0
:10125C00591F6B9F300D411D591F8E9F27D0BF9F6B
:10126C0025D06A9F23D0BE9F1DD0AF9F1BD0AE9FB1
:10127C00110D291F391F491F591FE32FF42F652FFB
:10128C00522F4F913F912F911F910F9066232AF06F
:10129C00550FEE1FFF1F661F02C073954BF2CDDE7C
:1012AC005F910895100D211D391F02C0200D311DB5
:1012BC00491F591F08955F93DCDE703821F411200B
:1012CC000AF49FCFA4CF903809F495CF0124089449
:1012DC00970B1BF4D4F30020F3CF792F1F932F938C
:1012EC003F934F9311241127222733274427552747
:1012FC0090E2AE17BF078607410730F0AE1BBF0B5D
:10130C00860B410B089401C08894551F221F331F74
:10131C00111CAA1FBB1F881F441F9A9551F7F90176
:10132C00612D4F913F912F911F91662332F0550FF4
:10133C00EE1FFF1F661F7A9543F27FDE5F910895C3
:10134C0099239AF0772342F0971748F029F4AE17B7
:10135C00BF07860720F031F09894889408959894EC
:10136C00089408951894889408957723C2F79717D2
:10137C0098F3A9F7EA17FB07680788F399F3ECCF02
:10138C000024AF0DB01D0895F09560957095E19512
:10139C00FF4F6F4F7F4F0895F595E795F595E795BE
:1013AC00F595E795F595E7950895F695E795F695F6
:1013BC00E7950895FE2FFF0FFF0B6F2F7F2F0895DA
:1013CC006F2F660F660B762F0895002498E0AA0FF6
:1013DC00001C0E1A10F40E0E01C0A1609A95B9F7FC
:1013EC00EA2FA02D089539D0F0DF0EF4E195089581
:1013FC003F934F935F93002411244427552730E2E9
:10140C00AA0FBB1F881F991F001C111C441F551FBE
:10141C000E1A1F0A460B570B28F40E0E1F1E461FE2
:10142C00571F01C0A1603A9559F7FD01BC01D001CD
:10143C00CA015F914F913F910895E894A7FF02C0B4
:10144C00A1956894E7FDE195C0DFEA2F0EF4E195D4
:10145C000895CEDFFD01BC010895E894E7FF02C0BA
:10146C00E1956894A7FF04C0A19500F8039400FAD5
:10147C000895ED91FC9111970895ED91FD916D9169
:10148C007C9113970895E881F9816A817B81089595
:10149C00E883F9836A837B8308957A936A93FA933A
:1014AC00EA930895182E862F612D192E972F712DE2
:1014BC001B2EBF2FF12D1A2EAE2FE12D0895309734
:1014CC006040704008955A934A933A932A931A9322
:1014DC000A9308955D814C813B812A811981088191
:1014EC000895AC0FBD1F05900D928A95E1F70895F4
:00000001FF
