:0C0000000C9481010C9400000C94000092
:10000C000C9400000C9400000C9400000C94000064
:10001C000C9400000C9400000C9400000C94000054
:10002C000C9400000C9400000C9400000C94000044
:10003C000C9400000C9400000C9400000C94000034
:10004C000C9400000C9400000C9400000C94000024
:10005C000C9400000C9400000C94000000000000B4
:10006C00000000F2000000E000E00028FE28FE285E
:10007C002454FE5448C4C81026466C92AA840A0024
:10008C00A0C00000003844820000824438002810D0
:10009C007C102810107C10100005060000101010A9
:1000AC001010000606000004081020407C8A92A262
:1000BC007C0042FE020042868A92628482A2E29C0A
:1000CC00182848FE08E4A2A2A29C3C5292920C80F2
:1000DC008E90A0C06C9292926C6092929478003642
:1000EC0036000000353600001028448200282828ED
:1000FC002828008244281040808A90604C929E826E
:10010C007C7E9090907EFE9292926C7C8282824455
:10011C00FE8282827CFE92929292FE909090907CD3
:10012C008292925CFE101010FE0082FE820084828D
:10013C008282FCFE10284482FE02020202FE402053
:10014C0040FEFE402010FE7C8282827CFE909090CD
:10015C00607C8286827DFE90989462649292924C2E
:10016C008080FE8080FC020202FCF8040204F8FE8F
:10017C00040804FEC6281028C6C0201E20C0868A8B
:10018C0092A2C200FE8282004020100804008282EB
:10019C00FE0020408040200202020202008040202B
:1001AC0000042A2A2A1EFE1222221C1C222222228F
:1001BC001C222212FE1C2A2A2A18107E908040181B
:1001CC002525253EFE1020201E0022BE0200040222
:1001DC0022BC00FE081422000082FE02003E201801
:1001EC00201E3E1020201E1C2222221C3F242424D0
:1001FC0018182424243F3E10202010122A2A2A04E6
:10020C0020FE2202043C0202043E38040204383C64
:10021C00020C023C2214081422300A0A0A3C222640
:10022C002A322200106C82000000FE000000826C5A
:10023C0010001020100810000000000004AA2AAAC8
:10024C001E1CA222A21C1C4202421C3ED050D03EBC
:10025C003CC242C23C3C8202823C7F9092926C0037
:10026C000000000000000000000000000000000082
:10027C000000000000000000000000000000000072
:10028C000000000000000000000000000000000062
:10029C000000000000000000000000000000000052
:1002AC000000000000000000000000000000000042
:1002BC000000000000000000000000000000000032
:1002CC000000000000000000000000000000000022
:1002DC000000000000000000000000000000000012
:1002EC000000000000000000000000000000000002
:1002FC00000000000000F894EE27EFBBF1E0F5BF22
:10030C00E5BFF8E1A895A4B7A77FA4BFF093600060
:10031C00E09360008DE0A2E0BB27ED938A95E9F7AE
:10032C0080E098E0A0E0B1E0ED930197E9F7E0E020
:10033C00EEBBEFEFEDBFE8E0EEBFC0E0D3E00C9416
:10034C00EB010A934298419800E00032E0F4E98115
:10035C00FA816B817C81E070F070607070780E9423
:10036C000A0211F4409801C0409A429A4298E981DD
:10037C00FA816B817C810E940002E983FA836B8392
:10038C007C830F5FE2CF419A4198088125960895AE
:10039C00E7B1E760E7B9E0E0F9E060E079E027D0A9
:1003AC00EBE0FAE06BE07AE022D0E7E0FBE067E01C
:1003BC007BE01DD0E1E0FCE061E07CE018D0E0E007
:1003CC00FFE060E07FE013D00895E2DFEAEAF1E0BD
:1003DC006FEF71E00CD0EAEAF2E060E070E007D079
:1003EC00E0E0F0E065E578E002D0F0CFFFCF0E94CE
:1003FC000502A7CFEE0FFF1F661F771F08957A9394
:10040C006A93FA93EA930895309760407040089588
:00000001FF
